:020000040800F2
:1000000078080020010100089D1300089D110008D8
:10001000A9110008F901000865150008000000009A
:10002000000000000000000000000000A513000810
:10003000FD01000800000000A113000811150008D0
:100040001B0100081B0100081B0100081B01000820
:100050001B0100081B0100081B0100081B01000810
:100060001B0100081B0100081B0100081B01000800
:100070001B0100081B0100081B0100081B010008F0
:100080001B0100081B0100081B0100081B010008E0
:100090001B0100081B0100081B0100081B010008D0
:1000A0001B0100081B0100081B0100081B010008C0
:1000B0001B0100081B0100081B0100081B010008B0
:1000C0001B0100081B0100081B0100081B010008A0
:1000D0001B0100081B0100081B0100081B01000890
:1000E0001B0100081B0100081B010008DFF80CD0F1
:1000F00000F04AF8004800478915000878080020F9
:100100000648804706480047FEE7FEE7FEE7FEE7B1
:10011000FEE7FEE7FEE7FEE7FEE7FEE7151500084F
:10012000ED0000082DE9F05F0546002092469B4651
:1001300088460646814640241BE0284641464746FD
:10014000224600F048F853465A46C01A914110D34F
:1001500011461846224600F02FF82D1A67EB0108C9
:100160004F4622460120002100F026F817EB000937
:100170004E41201EA4F10104DFDC484631462A46E8
:100180004346BDE8F09F00001CB5094800900948AF
:1001900001900546009C06E0E06840F0010394E809
:1001A000070098471034AC42F6D3FFF7A3FF0000D6
:1001B000381A0008581A0008202A04DB203A00FAEE
:1001C00002F1002070479140C2F1200320FA03F3AE
:1001D000194390407047202A04DB203A21FA02F0AC
:1001E0000021704721FA02F3D040C2F12002914071
:1001F0000843194670470000FEE700007047000002
:1002000070B542F20C060446C4F2020600F08CFA05
:100210003168C9071CD13068800644BF2020306097
:100220003068C00607D43069C00704D13068400781
:100230005CBF002070BD3068C00640F25000C2F2C2
:10024000000021D400213268520725D42AE000BFE3
:10025000C4B10546601C10D13068C007DBD03068DF
:10026000C0071CBF30685FEAC070D4D03068C007D8
:10027000F2D1D0E73068C007CDD000F055FA401B6E
:10028000A042F7D9032070BDC16941F00201C161EC
:1002900010213268520705D5C26941F0040142F0CD
:1002A0000102C2613269D20702D10120316070BD02
:1002B000C26942F00402C261306920F0010030617D
:1002C0000120316070BD00002DE9F04381B040F2A3
:1002D0005005C2F200052A7E012A03D1022001B096
:1002E000BDE8F08304460120266828764CF25030A1
:1002F0008846FFF785FF022E1CD100284ED1002032
:1003000042F21004E861C4F20204206840F00400E4
:100310002060206840F0400020604CF25030FFF731
:100320006FFF216821F0040121600021297601B0CE
:10033000BDE8F08390BB4FF0FF30C8F80000D4E96F
:10034000027007EB8020874228D242F21006C4F2E6
:1003500002064FF0000900BFC5F81C90306840F05D
:10036000020030607760306840F0400030604CF24E
:100370005030FFF745FF316821F00201316098B934
:10038000D4E9020107F5806700EB81208742E3D3BF
:1003900000200021297601B0BDE8F0830120002172
:1003A000297601B0BDE8F083C8F8007000212976F5
:1003B00001B0BDE8F083000042F21001C4F2020176
:1003C000086840F0800200200A6070472DE9F04381
:1003D00081B040F25007C2F2000716463A7E012A69
:1003E00004D1022001B0BDE8F08300BF0546012022
:1003F00038764CF250300C469946FFF701FF28B191
:100400000021397601B0BDE8F08300BF42F2100848
:100410000020C4F20208F861D8F8000040F00100A2
:10042000C8F800004CF250302680FFF7E9FED8F8FB
:100430000010002821F00101C8F8001018BF004684
:10044000DED1012DDCD00020F861D8F80000310C9D
:1004500040F00100C8F800004CF250306180FFF716
:10046000CFFED8F80010002821F00101C8F80010D4
:10047000C6D1E81E10F1030F4FF00000C0D8F8619C
:10048000D8F8000040F00100C8F800004CF25030ED
:10049000A4F80490FFF7B4FED8F80010002821F06B
:1004A0000101C8F80010ABD10020F861D8F80000B5
:1004B0004FEA194140F00100C8F800004CF25030FA
:1004C000E180FFF79DFED8F80010002821F001011F
:1004D000C8F8001018BF00460021397601B0BDE809
:1004E000F083000042F20400C4F20200C168090671
:1004F0005CBF0020704740F22311C4F267510160D5
:1005000048F6AB11CCF6EF510160C068C0B2C0092B
:10051000704700002DE9F04F82B00E68002E00F009
:10052000FF8040F20C4C40F2004E41F20042C4F217
:10053000010CC4F2010EC4F20102042700240123BD
:100540004FF0000A4FF00009904208BF03270097C0
:1005500049E000BF41F20002C4F20102009F904254
:1005600008BF022704F00C030F229A402BEA020274
:1005700007FA03F34FEA9A051A4346F825204E6816
:10058000F203DEF8002054BF22EA080242EA080221
:10059000CEF80020DEF80420B30354BF22EA08029C
:1005A00042EA0802CEF80420F302DEF8082054BF25
:1005B00022EA080242EA0802B302CEF80820DCF878
:1005C00000204FF0010354BF22EA080242EA080269
:1005D000CCF800200E680AF1010A36FA0AF204F19A
:1005E000040400F09D8003FA0AFB16EA0B08F1D020
:1005F0004E684FF6FF72C1F21002964212DC122EC4
:1006000056D8DFE806F0350B4D495555555555552B
:100610005555555555555545510000BFD1F80C90CD
:1006200046E000BF4FF6FF72C1F2210296420FDC96
:100630000022C1F2110296421AD00022C1F2120227
:10064000964215D00022C1F22102964210D02FE02E
:100650000022C1F2220296420AD00022C1F23102E7
:10066000964205D00022C1F23202964220D100BF4C
:100670008A684AB1012A14BFC0F814B0C0F810B09B
:100680004FF0080914E000BF4FF0040910E000BF6C
:10069000CA6802F104090BE04FF0000908E000BF4E
:1006A000CA6802F1080903E0CA6802F10C0900BF38
:1006B00002462646B8F5807F24BF0432203E1768E4
:1006C0000F25B54027EA050509FA06F635431560FA
:1006D000CA79D2067FF57EAF41F21803C4F2020355
:1006E0001A68AEF57E7642F001021A601A6802F0CE
:1006F00001020192019A2AF0030256F802B040F674
:100700000002C4F20102904208D040F60042C4F256
:10071000010290427FF41EAF012723E7002721E763
:1007200002B0BDE8F08F000040F27000C2F200009D
:100730000068704740F2040040F27001C2F200000D
:10074000C2F2000100780A68104408607047000097
:1007500080B542F20000C4F20200016841F01001CD
:100760000160032000F07AF8002000F005F800F0A6
:1007700027F8002080BD000070B540F20406C2F2E8
:10078000000640F20C013278C2F200014FF47A7395
:100790000968B3FBF2F20446B1FBF2F1084600F03F
:1007A00073FB0F2C4FF0010508D838B94FF0FF301C
:1007B00021460022002500F025F87460284670BD0F
:1007C00082B041F21800C4F202000168022241F036
:1007D00001010160016801F0010101910199416885
:1007E00041F080514160406800F0805000900098D6
:1007F0000420C4F20100016862F31A61016002B0D2
:100800007047000010B54EF60C5CCEF2000CDCF820
:100810000030C3F3022E8EF00704042C28BF0424FA
:10082000BEF103034FF0FF3E0EFA04F438BF00237D
:10083000A14399400EFA03F39A43114300F00F02CB
:1008400000F160430901043A03F56443624400285F
:1008500048BF02F10C03197010BD00004EF60C5198
:10086000CEF200010A684FF6FF031A4060F30A2235
:1008700042F0806040F0FD7008607047002804BFBF
:10088000012070472DE9F04381B042F20008C4F224
:1008900002080446D8F800000D4600F00700814227
:1008A0000CD9D8F8000020F007002843C8F8000051
:1008B000D8F8000000F00700A8426CD1206841F28F
:1008C00004098107C4F2020917D5410705D5D9F8F3
:1008D000001041F4E061C9F80010010705D5D9F80E
:1008E000001041F46051C9F80010D9F80010A26856
:1008F00021F0F0011143C9F80010C00742D1D8F827
:10090000000000F0070085420CD2D8F8000020F06B
:1009100007002843C8F80000D8F8000000F00700DE
:10092000A84238D12068410707D5D9F80010E268FD
:1009300021F4E0611143C9F80010000708D5D9F887
:100940000000216920F4605040EAC100C9F80000AD
:10095000D9F8002002F00C00082841F20020C0F273
:100960007A004DD141F66A13C2F38341C0F6000309
:10097000595CD20338D440F60010C0F23D00484321
:100980003EE000BF606859F8041C022808D0012826
:1009900026D1890306D4012001B0BDE8F08300BF51
:1009A0008901F8D5D9F8001021F003010843C9F8EE
:1009B0000000FFF7B9FE064641F28837D9F800007B
:1009C000616800F00C00B0EB810F98D0FFF7ACFE2F
:1009D000801BB842F2D9032001B0BDE8F08300BF0C
:1009E0008907D8D5DEE700BFD9F8002041F65013BB
:1009F000C2F34042C0F600039A5C4843B0FBF2F0F9
:100A0000D9F8001041F65212C1F30311C0F60002EA
:100A1000515C40F20C0220FA01F140F20800C2F2EF
:100A200000000068C2F200021160FFF7A5FE00207E
:100A300001B0BDE8F083000040F20C0041F2040177
:100A4000C2F20000C4F202010068096841F66212B5
:100A5000C1F30221C0F60002515CC840704700009B
:100A600040F20C0041F20401C2F20000C4F20201A3
:100A70000068096841F66212C1F3C221C0F60002A3
:100A8000515CC84070470000002804BF0120704737
:100A90002DE9F04182B00446007841F20006C0071B
:100AA000C4F202060CD0706800F00C00042840F07C
:100AB00081803068800303D56068002800F046819B
:100AC000207880071BD5706810F00C0F09D0706873
:100AD00000F00C00082840F087807068C00300F127
:100AE00083803068800703D52069012840F02E817B
:100AF0003068616920F0F80040EAC1003060207879
:100B0000000713D4207840072CD4E569002D00F0AD
:100B10001881706800F00C00082840F0A780012DB3
:100B200040F00481012002B0BDE8F081A0690028F6
:100B300000F084800020C4F242200121C0F880141B
:100B4000FFF7F2FD054600BF706A800700F1B28032
:100B5000FFF7EAFD401B0228F6D9032002B0BDE8EA
:100B6000F08100BFF0695FEAC00808D4F06940F086
:100B70008050F061F06900F080500090009847F2DA
:100B80000007C4F200073868C00549D4386840F44B
:100B900080703860FFF7C8FD054600BF3868C005A3
:100BA0003ED4FFF7C1FD401B6428F7D9032002B0F3
:100BB000BDE8F081706800F00C00082803D170686F
:100BC000C0033FF576AF61683068002900F00C8102
:100BD000B1F5A02F00F00081B1F5803F40F01A81FF
:100BE00040F480301CE100BF2069002840F2000082
:100BF000C4F2422000F0888001210160FFF794FDDB
:100C0000054600BF306880073FF572AFFFF78CFDE7
:100C1000401B0228F6D9032002B0BDE8F08100BFD6
:100C2000E168306A002900F09D80052900F092807B
:100C3000012940F0AF8040F00100B1E00020C4F293
:100C400042200021C0F88014FFF76EFD054600BF6A
:100C5000706A80077FF556AFFFF766FD401B0228DC
:100C6000F6D9032002B0BDE8F08100BF0027C4F22E
:100C7000422700203866FFF757FD022D05460DD1AB
:100C80003068800140F1DE80FFF74EFD401B0228F6
:100C90004FF00300F4D902B0BDE8F0813068800164
:100CA0004FD5FFF741FD401B02284FF00300F5D957
:100CB000F1E700BF40F20C00C2F20000006844F609
:100CC000D351C1F26201A0FB0101480A019000BFAB
:100CD00000BF0198411E002801913FF413AF00BFEF
:100CE0000198411E002801913FF40CAF00BF01980C
:100CF000411E002801913FF405AF00BF0198411E3D
:100D000000280191E4D1FDE600210160FFF70CFD10
:100D1000054600BF306880077FF5F1AEFFF704FDA0
:100D2000401B02284FF00300F4D9B4E77068216A31
:100D300000F480328A4209D1616A00F4701088425E
:100D400004D1002002B0BDE8F08100BF012002B054
:100D5000BDE8F08140F004003062306A40F00100EC
:100D60001EE000BF20F001003062306A20F0040075
:100D70003062FFF7D9FC054641F28837306A8007B8
:100D800020D5FFF7D1FC401BB8424FF00300F5D946
:100D900081E700BF20F001003062306A20F00400DB
:100DA0003062FFF7C1FC054641F28837306A8007A0
:100DB00008D4FFF7B9FC401BB842F7D9032002B0B2
:100DC000BDE8F081B8F1000F3FF59FAEF06920F06B
:100DD0008050F06199E600BF40F4802030603068B8
:100DE00040F480301CE000BF20F480303060306878
:100DF00020F480203060FFF797FC054630688003C0
:100E00007FF55EAEFFF790FC401B64284FF00300B7
:100E1000F4D940E720F480303060306820F480203E
:100E20003060FFF781FC0546306880033FF548AE2F
:100E3000FFF77AFC401B6428F6D9032002B0BDE816
:100E4000F08100BF206AB0F5803F05D17168A268CB
:100E500021F40031114371607168626A21F47411E8
:100E600011430843706001203866FFF75DFC0446BB
:100E7000306880013FF565AFFFF756FC001B022884
:100E80004FF00300F4D906E7411E0020B0EB116FCC
:100E90001CBF012070474EF21002CEF200025160DA
:100EA0004EF62351CEF20001F0230B700721906023
:100EB00011607047002804BF0120704710B5044638
:100EC00090F8390028B9002084F83800204600F056
:100ED00061F8242084F839002068D4E90212C3683C
:100EE00023F40053C360036923F440531A4302619F
:100EF000D4E904231143C268194341F20C639A43B5
:100F00001143C1604169A26921F44071114343F664
:100F10000002C4F201029042416103D0FFF78CFD50
:100F200002E000BFFFF79CFDD4E9002319214843EC
:100F30009900B0FBF1F048F21F5CC5F2EB1CA0FB7E
:100F40000C314FF69C734909C0F6FF7301FB030097
:100F5000322303EB0010A0FB0C03F02000EA531037
:100F600000EB0110C3F34311084490601069202185
:100F700020F490401061506920F02A005061D06840
:100F800040F40050D0600020E06384F8391084F809
:100F90003A1010BD70B586B040F60004C4F20104EA
:100FA000006804F54051002688420596CDE90366A5
:100FB000029601D006B070BD41F21800C4F20200E2
:100FC000016802AD41F480410160016801F4804193
:100FD00001910199016841F004010160006829460E
:100FE00000F00400019001984FF40070029002207C
:100FF0000390032005902046FFF78CFA4FF48060A1
:10100000CDE90206204629460496FFF783FA06B08A
:1010100070BD00002DE9F041044690F83900202809
:101020000CD10E4600294FF0010018BF002A01D153
:10103000BDE8F08194F83800012803D10220BDE812
:10104000F08100BF012084F838000020E0632120F7
:101050001D4684F839001746FFF766FBA784E7842E
:10106000E18C074600295FD005F1010806E000BFCA
:1010700016F8011B4160E18C002956D0E08C013844
:10108000E0842068A1680268B1F5805F4FEA0261E0
:101090001CD100290DD4B8F1000F29D0002D6AD041
:1010A000FFF742FBC11B2068A94264D8016809060A
:1010B000F6D531886FF35F2141602169002914BFA3
:1010C00001360236E18C0029D8D12EE00029CFD498
:1010D000B8F1000F1AD0002D4DD000BFFFF724FB50
:1010E000C11B2068A94246D801680906F6D5BFE7AA
:1010F00001680906DDD4016809065CBF01685FEA82
:101100000161D6D401680906F2D5D2E70168090663
:10111000AED4016809065CBF01685FEA0161A7D42B
:1011200001680906F2D5A3E72068016849060FD4D3
:101130000DB3691C19D10168490609D40168490633
:101140005CBF01685FEA416102D401684906F2D5DB
:10115000202084F839000020002184F83810BDE8F0
:10116000F08100BF00684006F2D4FFF7DDFAC11B32
:101170002068A942F6D9C16821F4D071C1604169E3
:1011800021F001014161202084F8390084F83A00FF
:101190000320002184F83810BDE8F081FEE700004C
:1011A00080F3088870470000FEE700002DE9F04F4B
:1011B000ADF21C4D019057A01646894600F0B6FBD3
:1011C0004FEA962AFFF78EF9002002AE0290CDF882
:1011D0000C040DF20C413046CDE9049AFFF774F887
:1011E000FFF7EAF853A000F0A1FB5AA000F09EFB25
:1011F000BAF1000F69D0019F06F140044FF0000BD7
:10120000002000BF39583A183150536831184B60EC
:10121000936825188B60D368CB6013690B615369A1
:101220004B6193698B61D369CB61136A0B62536A1B
:101230004B62936A8B62D36ACB62136B0B63536B03
:101240004B63936B8B63D36B45F8043C136C235057
:10125000536C80304B64936CB0F5806F8B64D36CAF
:10126000CB64136D0B65536D4B65936D8B65D36DBF
:10127000CB65136E0B66536E4B66936E8B66D36EA7
:10128000CB66136F0B67536F4B67936F8B67D26F90
:10129000CA67B7D1FFF726F94FF0000856F80820C3
:1012A00009EB080102200023FFF790F808F1040879
:1012B000B8F5806FF2D1FFF77FF80BF1010B07F55E
:1012C0008067D34509F580699AD127A000F02EFBED
:1012D00041F60420C0F6000000F028FBFFF702F9F9
:1012E00001980021CDF80C14CDF81404CDF80814A1
:1012F0000DF20C400DF58161CDF818A4FEF7E4FF66
:10130000FFF75AF81DA000F011FB0DF21C4DBDE8CF
:10131000F08F00BF3E205374617274206572617358
:10132000652064657320666C6173682E2E2E2E2EE8
:101330002E0D00003E2045726173652064657320A8
:10134000666C61736820646F776E2E2E2E2E2E2EA3
:101350000D0000003E20537461727420636F707939
:101360002E2E2E2E2E2E0D003E20436F70792064DF
:101370006F776E2E2E2E2E2E2E0D00003E204572E3
:101380006173652073726320666C61736820646F9B
:10139000776E2E2E2E2E2E2E0D0000007047000090
:1013A0007047000070470000F0B581B048F6FC7748
:1013B00045F2000433A0C0F60107C0F6000400F0B7
:1013C000B5FA41F6C915C0F60005284600F0AEFA98
:1013D00041F6A416C0F60006304600F0A7FA2AA08F
:1013E00000F0A4FA304600F0A1FA284600F09EFA78
:1013F0002FA000F09BFA38684AF6AA21C5F2555191
:10140000884219D0411C15D0B0F1AA3F30D141F625
:10141000EE10C0F6000000F089FA04F520402146E5
:101420004FF42042FFF7C2FE41F62320C0F6000031
:1014300003E000BF27A000E02CA000F077FA41F6FF
:101440009010C0F6000000F071FA20680021C2F68A
:10145000FE710840B0F1005F1CBF01B0F0BD6568CF
:101460002068FFF79DFE284601B0BDE8F040004728
:10147000396841F67A10C0F6000001B0BDE8F040CE
:1014800000F0D4B80D0000002A202020204C656117
:10149000665F4672756974277320426F6F744C6F74
:1014A000616465722020202020202A0D00000000A9
:1014B0003E2043686F6F736520612073746172749E
:1014C0007570206D6574686F642E2E2E2E2E2E0D75
:1014D000000000003E204E6F726D616C20737461DD
:1014E00072742E2E2E2E2E2E0D0000003E205265E0
:1014F00073746F726520746F20666163746F7279A4
:101500002070726F6772616D2E2E2E2E2E2E0D00A2
:10151000FFF710B941F20000C4F202000168002296
:1015200041F0010101604168CFF6FF0211404160C6
:1015300001684FF6FF72CFF6F66211400160016854
:1015400021F480210160416821F4FE0141604FF4E3
:101550001F0181604EF60850CEF200004FF000618E
:1015600001607047FEE7000080B582B0019040F254
:101570001000C2F2000001A901224FF6FF73FFF72D
:1015800049FD019802B080BD90B0FFF7E1F800245A
:101590000120CDE90B44CDE9094406900A904FF4AF
:1015A000E0104FF4803102250F9006A8CDE9071412
:1015B000CDE90D51FFF768FA0F20CDE901054FF491
:1015C0008060CDE9040401A802210394FFF756F9D5
:1015D00041F21800C4F2020001680C2341F020011E
:1015E000016001684FF4E13201F020010691069993
:1015F000016841F004010160006843F6000100F059
:1016000004000690069840F21000C2F20000C4F2F6
:10161000010180E81600C0E90344C0E90534C46153
:10162000FFF748FCFFF7C0FEFCE700000FB4054BD6
:1016300010B503A9044A029800F018F810BC5DF830
:1016400014FB0000691500080000002002E008C833
:10165000121F08C1002AFAD170477047002001E02C
:1016600001C1121F002AFBD1704700002DE9FF4F76
:101670008DB09B460F460446002606E025280BD079
:101680005A460F999047641C761C20780028F5D1A3
:1016900011B03046BDE8F08F0025A84601229849D8
:1016A00000E0054314F8013F203B02FA03F0084232
:1016B000F7D120782E2817D114F8010F45F0040532
:1016C0002A280ED06FF02F022078A0F130010929CE
:1016D0000AD808EB880102EB410100EB0108641C09
:1016E000F2E757F8048B641C20786C280DD004DCDA
:1016F0004C2812D06A2811D104E074280DD07A2821
:101700000CD10AE045F4001507E0617845F4801536
:10171000814202D1641C05F58015641C2278692A77
:1017200045D008DC002AB3D0582A69D0632A10D0EB
:10173000642A08D13BE0702A67D0732A13D0752A37
:101740005CD0782A5CD010465A460F999047761C98
:10175000D3E017F8040B8DF8000000208DF801008D
:10176000E946012003E057F8049B4FF0FF3069077A
:101770004FF0000501D40AE06D1C45450DDA8542A5
:10178000FADB19F805100029F6D106E06D1C854238
:10179000FCDB19F805100029F8D12E4404E019F8F3
:1017A000010B5A460F9990476D1EF8D2A5E00A200A
:1017B0000021CDE90801C5F3025002280DD001CF68
:1017C000C117031E71F100030DDA4FF0000CD0EBCE
:1017D0000C006CEB01012D2308E0FF1D27F007072B
:1017E000F7E80201EDE72B0504D52B238DF828300F
:1017F00001233BE0EB0739D02023F7E70A2000E084
:1018000010200021CDE9080107E01020002145F05B
:101810000405CDE908014FF00808C5F3025002287D
:101820000FD001CF00214FF0000A2B071FD5702ADF
:101830000DD0DDE908C38CF0100C5CEA030C0CD071
:1018400015E0FF1D27F00707F7E80201EBE740224C
:101850008DF828204FF0010A0BE050EA010306D072
:1018600030238DF828308DF8292002239A46582AF3
:1018700004D024A20DF120090B9209E026A2F9E779
:10188000DDE90823FEF74EFC0B9B9B5C09F8013D4C
:1018900050EA0102F4D1ADEB09002030089068074E
:1018A00001D44FF001080899884502DDA8EB01003A
:1018B00000E000208046002506E00AA85A46405D68
:1018C0000F9990476D1C761C5545F6DB04E03020DF
:1018D0005A460F999047761CB8F10001A8F101080B
:1018E000F5DC05E019F8010B5A460F999047761C74
:1018F0000899481E08900029F4DC641CC5E6000025
:1019000009280100303132333435363738396162D5
:101910006364656600000000303132333435363799
:1019200038394142434445460000000010B50446A2
:1019300001E0FFF719FE14F8010B04490028F8D163
:10194000BDE810400A20FFF70FBE00000000002095
:10195000010200000000000000000102030406076D
:101960000809000000000102030402030405060741
:1019700008090A0B0C0D0E0F10103E204572726FF5
:10198000723A25582121212E2E2E2E2E2E0D0A00A0
:101990003E2053746172742075702E2E2E2E2E2EC2
:1019A0000D0A0D002A202020202020202020202089
:1019B0002020202020202020202020202020202027
:1019C0002020202020202A0D002A2A2A2A2A2A2AFA
:1019D0002A2A2A2A2A2A2A2A2A2A2A2A2A2A2A2A67
:1019E0002A2A2A2A2A2A2A2A2A2A2A2A0D003E2094
:1019F0005374617274207570646174652E2E2E2E7E
:101A00002E2E0D003E205374617274206572617336
:101A1000652073726320666C6173682E2E2E2E2EE5
:101A20002E0D003E2055706461746520646F776EE2
:101A30002E2E2E2E2E2E0D00581A000800000020EB
:101A4000100000004C160008681A00081000002062
:101A5000680800005C16000800000000010000009B
:081A6000100000000024F40056
:04000005080000ED02
:00000001FF
