:020000040800F2
:10000000D80A0020350100082D1E0008251E000812
:10001000291E0008FD0100088D23000800000000D3
:10002000000000000000000000000000351E000875
:100030000D02000800000000311E0008391E0008F3
:100040004F0100084F0100084F0100084F01000850
:100050004F0100084F0100084F0100084F01000840
:100060004F0100084F0100084F0100084F01000830
:100070004F0100084F0100084F010008010200086D
:100080004F0100084F0100084F0100080000000068
:100090000000000000000000000000004F01000808
:1000A0004F0100084F0100084F0100084F010008F0
:1000B0004F0100084F0100084F0100084F010008E0
:1000C0004F0100084F0100084F0100084F010008D0
:1000D0004F010008212300084F0100084F010008CC
:1000E0004F0100084F0100084F0100080000000008
:1000F0000000000000000000000000000000000000
:1001000000000000000000000000000000000000EF
:1001100000000000000000004F0100084F0100082F
:10012000DFF80CD000F052F8004800471124000816
:10013000D80A00200648804706480047FEE7FEE749
:10014000FEE7FEE7FEE7FEE7FEE7FEE7FEE7FEE787
:100150003D1E00082101000840EA01039B0703D06F
:1001600009E008C9121F08C0042AFAD203E011F8F6
:10017000013B00F8013B521EF9D27047D2B201E0B8
:1001800000F8012B491EFBD270470022F6E710B59C
:1001900013460A4604461946FFF7F0FF204610BDF5
:1001A00030B50B46014600202022012409E021FA47
:1001B00002F59D4205D303FA02F5491B04FA02F544
:1001C0002844151EA2F10102F1DC30BD1CB509481E
:1001D0000090094801900546009C06E0E06840F068
:1001E000010394E8070098471034AC42F6D3FFF7B8
:1001F0009BFF0000002A0008202A0008FEE70000FC
:1002000040F22040C2F2000000F0ECB8704700005D
:10021000EFF3108072B600BFFEE7000070B542F247
:100220000C060446C4F2020600F080FC3168C907DF
:100230001CD13068800644BF202030603068C00682
:1002400007D43069C00704D1306840075CBF002084
:1002500070BD3068C00640F2B040C2F2000021D448
:1002600000213268520725D42AE000BFC4B10546F8
:10027000601C10D13068C007DBD03068C0071CBFDD
:1002800030685FEAC070D4D03068C007F2D1D0E7E0
:100290003068C007CDD000F049FC401BA042F7D920
:1002A000032070BDC16941F00201C16110213268B3
:1002B000520705D5C26941F0040142F00102C26152
:1002C0003269D20702D10120316070BDC26942F0AB
:1002D0000402C261306920F0010030610120316008
:1002E00070BD0000014690F82100022816D1086870
:1002F000D1E90FC3026822F00E020260026822F008
:1003000001020260012000FA03F2CCF8042081F817
:1003100021000020002281F82020704704208863FB
:100320000120002281F820207047000090F8211061
:10033000022923D1026840F2040C1168C4F2020CB5
:1003400021F00E01116013682F21C4F202018A42CC
:1003500023F00103136015DD3023C4F202039A4237
:100360001CD04423C4F202039A421BD05823C4F287
:1003700002039A421CD14FF4803321E004218163AF
:10038000012070470823C4F202039A420ED01C23B6
:10039000C4F202039A420BD1102311E04FF4807390
:1003A0000EE000BF4FF480530AE000BF012307E0D6
:1003B0000CF168014FF080738A4208BF4FF480133C
:1003C0000121CCF8003080F82110416B0022002977
:1003D00080F8202004BF0020704780B588470020A7
:1003E00080BD000010B5D0E90FCE0168DCF8003008
:1003F0000A6823FA0EF35C072AD512F0040427D00A
:100400000A68920603D40A6822F004020A602F22C6
:10041000C4F20202914240F20402C4F202025BDD25
:100420003023C4F20203994272D04423C4F202037F
:10043000994273D05823C4F20203994240F07A8063
:100440004FF480231360C16A002940F098806FE068
:100450009C0727D512F0020424D00A68920606D41D
:100460000A6822F00A020A60012280F821202F2265
:10047000C4F20202914240F20402C4F202023BDDE5
:100480003023C4F20203994260D04423C4F2020331
:1004900099425FD05823C4F20203994260D14FF4CD
:1004A000003365E01B0743D512F0080208BF10BDFA
:1004B0000A6822F00E020A60012101FA0EF2CCF85D
:1004C0000420816380F82110016B0022002980F84C
:1004D000202054D12CE000BF0823C4F2020399422B
:1004E00022D01C23C4F20203994223D1402313607B
:1004F000C16A002943D11BE00823C4F202039942D8
:100500002CD01C23C4F20203994229D120232FE0CE
:100510004FF480631360C16A89BB09E04FF48043E4
:100520001360C16A59BB03E004231360C16A31BB85
:1005300010BD00BF02F168044FF08063A14208BF04
:100540004FF480031360C16AC9B9F1E74FF4007337
:100550000EE000BF4FF400530AE000BF022307E0A3
:1005600002F168044FF00073A14208BF4FF400137A
:100570001360816A0022002980F82020D8D0BDE8CD
:1005800010400847014600284FF0010008BF70479F
:100590002DE9F043D1F800C04FF6F873CBF6FD73A8
:1005A0004CF6CD426344CCF6CC42A3FB02236FF061
:1005B000030202EA93020023C4F2020301F10C08D1
:1005C000C1E90F320222D1E9019E98E8F00181F8D9
:1005D0002120DCF8002043F6F0739A4342EA090236
:1005E00042EA0E0222432A4332433A4342EA0802D5
:1005F000CCF8002000228A6381F8210081F82020B5
:100600000020BDE8F043704790F820C0BCF1010F16
:1006100004BF02207047F0B54FF0010E80F820E0D3
:1006200090F821C0BCF1010F26D14FF0020C80F8E8
:1006300021C04FF0000CC0F838C0D0E900C4C56A32
:10064000C66BDCF80070102C27F00107CCF80070A6
:10065000006C0EFA00F070600846CCF8043004BF5D
:1006600010460A46CCF80800CCF80C20DCF8000054
:1006700045B140F00E000DE0002180F8201002206E
:10068000F0BD00BF20F00400CCF80000DCF8000052
:1006900040F00A00CCF80000DCF8000040F0010057
:1006A000CCF800000020F0BDB0B5044600F03EFAE2
:1006B000054640F20400C2F200000078611C18BF39
:1006C000044400BF00F032FA401BA042FAD3B0BD90
:1006D0002DE9F04381B040F2B045C2F200052A7E18
:1006E000012A03D1022001B0BDE8F08304460120B5
:1006F000266828764CF250308846FFF78FFD022E90
:100700001CD100284ED1002042F21004E861C4F24E
:100710000204206840F004002060206840F040009F
:1007200020604CF25030FFF779FD216821F0040180
:1007300021600021297601B0BDE8F08390BB4FF025
:10074000FF30C8F80000D4E9027007EB8020874230
:1007500028D242F21006C4F202064FF0000900BF90
:10076000C5F81C90306840F0020030607760306857
:1007700040F0400030604CF25030FFF74FFD3168E0
:1007800021F00201316098B9D4E9020107F58067D0
:1007900000EB81208742E3D300200021297601B0BD
:1007A000BDE8F08301200021297601B0BDE8F08387
:1007B000C8F800700021297601B0BDE8F083000080
:1007C00042F21001C4F20201086840F080020020E9
:1007D0000A6070472DE9F04381B040F2B047C2F2A1
:1007E000000716463A7E012A04D1022001B0BDE876
:1007F000F08300BF0546012038764CF250300C469D
:100800009946FFF70BFD28B10021397601B0BDE80C
:10081000F08300BF42F210080020C4F20208F86121
:10082000D8F8000040F00100C8F800004CF2503049
:100830002680FFF7F3FCD8F80010002821F0010112
:10084000C8F8001018BF0046DED1012DDCD0002012
:10085000F861D8F80000310C40F00100C8F8000041
:100860004CF250306180FFF7D9FCD8F80010002816
:1008700021F00101C8F80010C6D1E81E10F1030FE5
:100880004FF00000C0D8F861D8F8000040F0010037
:10089000C8F800004CF25030A4F80490FFF7BEFCFA
:1008A000D8F80010002821F00101C8F80010ABD1E1
:1008B0000020F861D8F800004FEA194140F001002B
:1008C000C8F800004CF25030E180FFF7A7FCD8F8E0
:1008D0000010002821F00101C8F8001018BF0046E0
:1008E0000021397601B0BDE8F083000042F2040037
:1008F000C4F20200C16809065CBF0020704740F2E4
:100900002311C4F26751016048F6AB11CCF6EF51E8
:100910000160C068C0B2C009704700002DE9F04F07
:1009200082B00E68002E00F0FD8041F20042C4F259
:100930000102042340F2004E904208BF03234FF609
:10094000FF7CC4F2010E009300240123C1F2100CBD
:100950004FF0000A4FF000094BE000BF41F20002E7
:10096000C4F20102009F904208BF022704F00C036A
:100970000F229A402BEA020207FA03F34FEA9A0584
:100980001A4346F825204E6840F20C45F202DEF884
:10099000082054BF22EA080242EA0802C4F2010514
:1009A000CEF808202A68B30254BF22EA080242EABD
:1009B00008022A60B303DEF8042054BF22EA0802CA
:1009C00042EA0802F303CEF80420DEF800204FF0DC
:1009D000010354BF22EA080242EA0802CEF80020CE
:1009E0000E680AF1010A36FA0AF204F1040400F072
:1009F000998003FA0AFB16EA0B08F1D04E686645A7
:100A000012DC122E56D8DFE806F0350B4D4955554D
:100A1000555555555555555555555545510000BFDA
:100A2000D1F80C9046E000BF4FF6FF72C1F22102F0
:100A300096420FDC0022C1F2110296421AD0002227
:100A4000C1F21202964215D00022C1F22102964252
:100A500010D02FE00022C1F2220296420AD00022DA
:100A6000C1F23102964205D00022C1F23202964212
:100A700020D100BF8A684AB1012A14BFC0F814B05F
:100A8000C0F810B04FF0080914E000BF4FF004099F
:100A900010E000BFCA6802F104090BE04FF0000942
:100AA00008E000BFCA6802F1080903E0CA6802F161
:100AB0000C0900BF02462646B8F5807F24BF0432E9
:100AC000203E17680F25B54027EA050509FA06F606
:100AD00035431560CA79D2067FF582AF41F218031B
:100AE000C4F202031A68AEF57E7642F001021A6083
:100AF0001A6802F001020192019A2AF0030256F8E4
:100B000002B040F60002C4F20102904208D040F662
:100B10000042C4F2010290427FF420AF012725E792
:100B2000002723E702B0BDE8F08F000040F2D0605C
:100B3000C2F200000068704740F2040040F2D06149
:100B4000C2F20000C2F2000100780A681044086096
:100B50007047000080B5032000F08CF80F2000F0F3
:100B600005F800F027F8002080BD000070B540F2C5
:100B70000406C2F2000640F20C013278C2F2000113
:100B80004FF47A730968B3FBF2F20446B1FBF2F159
:100B9000084600F04BFB0F2C4FF0010508D838B980
:100BA0004FF0FF3021460022002500F037F8746036
:100BB000284670BD82B041F21800C4F202000168FC
:100BC000022241F001010160016801F0010101917F
:100BD0000199416841F080514160406800F08050C7
:100BE000009000980420C4F20100016862F31A61C9
:100BF000016002B070470000002848BF704700F055
:100C00001F01012202FA01F11C2202EAD0004EF279
:100C10000012CEF2000281507047000010B54EF66F
:100C20000C5CCEF2000CDCF80030C3F3022E8EF028
:100C30000704042C28BF0424BEF103034FF0FF3E39
:100C40000EFA04F438BF0023A14399400EFA03F3CF
:100C50009A43114300F00F0200F160430901043A86
:100C600003F564436244002848BF02F10C03197085
:100C700010BD00004EF60C51CEF200010A684FF68E
:100C8000FF031A4060F30A2242F0806040F0FD70DA
:100C90000860704701F096FB002804BF01207047F0
:100CA000F0B581B00446006841F204068107C4F241
:100CB000020611D5410703D5316841F4E061316086
:100CC000010703D5316841F4605131603168A26891
:100CD00021F0F00111433160C10732D0606856F84D
:100CE000041C022806D001280AD189030ED4012051
:100CF00001B0F0BD890109D4012001B0F0BD00BFF1
:100D0000890703D4012001B0F0BD00BF316821F094
:100D1000030108433060FFF709FF054641F28837B9
:100D20003068616800F00C00B0EB810F08D0FFF76D
:100D3000FDFE401BB842F3D9032001B0F0BD00BF57
:100D40002068410705D53168E26821F4E06111436C
:100D50003160000706D53068216920F4605040EA10
:100D6000C1003060326802F00C00082841F2002017
:100D7000C0F27A0019D142F6E013C2F38341C0F603
:100D80000003595CD20305D440F60010C0F23D00C8
:100D900048430AE0B26A42F6F01302F00F02C0F6CE
:100DA00000039A5C4843B0FBF2F0316842F6C81287
:100DB000C1F30311C0F60002515C40F20C0220FAAC
:100DC00001F140F20800C2F200000068C2F2000225
:100DD0001160FFF7CBFE002001B0F0BD40F20C0027
:100DE00041F20401C2F20000C4F202010068096885
:100DF00042F6D812C1F30221C0F60002515CC8408D
:100E00007047000040F20C0041F20401C2F2000001
:100E1000C4F202010068096842F6D812C1F3C22187
:100E2000C0F60002515CC84070470000002804BFB3
:100E3000012070472DE9F04182B00446007841F26C
:100E40000006C007C4F202060CD0706800F00C0067
:100E5000042840F081803068800303D56068002852
:100E600000F04681207880071BD5706810F00C0FC9
:100E700009D0706800F00C00082840F08780706886
:100E8000C00300F183803068800703D52069012802
:100E900040F02E813068616920F0F80040EAC1001E
:100EA00030602078000713D4207840072CD4E569FF
:100EB000002D00F01881706800F00C00082840F048
:100EC000A780012D40F00481012002B0BDE8F0812F
:100ED000A069002800F084800020C4F24220012193
:100EE000C0F88014FFF722FE054600BF706A800735
:100EF00000F1B280FFF71AFE401B0228F6D903204A
:100F000002B0BDE8F08100BFF0695FEAC00808D414
:100F1000F06940F08050F061F06900F0805000907E
:100F2000009847F20007C4F200073868C00549D4AA
:100F3000386840F480703860FFF7F8FD054600BF60
:100F40003868C0053ED4FFF7F1FD401B6428F7D98F
:100F5000032002B0BDE8F081706800F00C000828A2
:100F600003D17068C0033FF576AF6168306800292F
:100F700000F00C81B1F5A02F00F00081B1F5803FA9
:100F800040F01A8140F480301CE100BF2069002845
:100F900040F20000C4F2422000F08880012101608C
:100FA000FFF7C4FD054600BF306880073FF572AF0C
:100FB000FFF7BCFD401B0228F6D9032002B0BDE8B4
:100FC000F08100BFE168306A002900F09D800529AA
:100FD00000F09280012940F0AF8040F00100B1E0C4
:100FE0000020C4F242200021C0F88014FFF79EFDCB
:100FF000054600BF706A80077FF556AFFFF796FD84
:10100000401B0228F6D9032002B0BDE8F08100BFE2
:101010000027C4F2422700203866FFF787FD022D23
:1010200005460DD13068800140F1DE80FFF77EFD7E
:10103000401B02284FF00300F4D902B0BDE8F08154
:10104000306880014FD5FFF771FD401B02284FF03B
:101050000300F5D9F1E700BF40F20C00C2F2000036
:10106000006844F6D351C1F26201A0FB0101480AB5
:10107000019000BF00BF0198411E002801913FF47C
:1010800013AF00BF0198411E002801913FF40CAF3F
:1010900000BF0198411E002801913FF405AF00BF39
:1010A0000198411E00280191E4D1FDE60021016074
:1010B000FFF73CFD054600BF306880077FF5F1AEC5
:1010C000FFF734FD401B02284FF00300F4D9B4E7CA
:1010D0007068216A00F480328A4209D1616A00F4A2
:1010E0007010884204D1002002B0BDE8F08100BF3A
:1010F000012002B0BDE8F08140F004003062306AA7
:1011000040F001001EE000BF20F001003062306AB4
:1011100020F004003062FFF709FD054641F28837F0
:10112000306A800720D5FFF701FD401BB8424FF021
:101130000300F5D981E700BF20F001003062306A7A
:1011400020F004003062FFF7F1FC054641F28837D9
:10115000306A800708D4FFF7E9FC401BB842F7D992
:10116000032002B0BDE8F081B8F1000F3FF59FAE5B
:10117000F06920F08050F06199E600BF40F48020D3
:101180003060306840F480301CE000BF20F48030D4
:101190003060306820F480203060FFF7C7FC0546DF
:1011A000306880037FF55EAEFFF7C0FC401B64280B
:1011B0004FF00300F4D940E720F48030306030680D
:1011C00020F480203060FFF7B1FC054630688003D2
:1011D0003FF548AEFFF7AAFC401B6428F6D9032070
:1011E00002B0BDE8F08100BF206AB0F5803F05D1B4
:1011F000F16AA26821F00F011143F1627168626A1D
:1012000021F4741111430843706001203866FFF720
:101210008DFC0446306880013FF565AFFFF786FC22
:10122000001B02284FF00300F4D906E7411E0020FE
:10123000B0EB116F1CBF012070474EF21002CEF2CE
:10124000000251604EF62351CEF20001F0230B70E4
:1012500007219060116070477047000010B5044688
:101260000068416994F84120212A56D111F080018B
:1012700053D000BF206850E8050F216820F080009F
:1012800041E80502DAB1206850E8050F216820F036
:10129000800041E8050292B1206850E8050F2168FE
:1012A00020F0800041E805024AB1206850E8050FAF
:1012B000216820F0800041E80502002ADAD1A06B05
:1012C000002818BFFFF70EF8206850E8030F2168C8
:1012D00020F0C00041E80302DAB1206850E8030FB3
:1012E000216820F0C00041E8030292B1206850E874
:1012F000030F216820F0C00041E803024AB12068D2
:1013000050E8030F216820F0C00041E80302002AE2
:10131000DAD1202084F841002068406994F8421016
:10132000222940F0A78010F0400000F0A38000BF09
:10133000206850E8050F216820F0400041E80502D0
:10134000DAB1206850E8050F216820F0400041E83C
:10135000050292B1206850E8050F216820F0400096
:1013600041E805024AB1206850E8050F216820F0E5
:10137000400041E80502002ADAD1E06B002818BFDE
:10138000FEF7B0FF206850E8030F216820F490704A
:1013900041E80302BAB3206850E8030F216820F443
:1013A000907041E8030272B3206850E8030F21688F
:1013B00020F4907041E803022AB3206850E8030F3C
:1013C000216820F4907041E80302002ADAD11AE083
:1013D000206850E8050F216820F0010041E805026F
:1013E000DAB1206850E8050F216820F0010041E8DB
:1013F000050292B1206850E8050F216820F0010035
:1014000041E805024AB1206850E8050F216820F044
:10141000010041E80502002ADAD1206B012824D11D
:10142000206850E8030F216820F0100041E8030213
:10143000DAB1206850E8030F216820F0100041E87D
:10144000030292B1206850E8030F216820F01000D9
:1014500041E803024AB1206850E8030F216820F0F8
:10146000100041E80302002ADAD1202084F842006B
:1014700000202063002010BD70470000B0B582B08E
:1014800001680A68CC684B6902F02F05202D04F032
:10149000200505D125B102B0BDE8B04000F050BE36
:1014A0005FEA027C1EBF03F0010E04F4907313EB9D
:1014B0000E0341D1036BD50618D5012B16D114F0BC
:1014C000100313D0002201920A6801924A68019227
:1014D000019A496949064BD4818DC28DC38D002B79
:1014E00018BF914240F0F48102B0B0BD13062DD573
:1014F00014F080032AD090F84120212AF4D1826888
:10150000B2F5805F03D10269002A00F06782026AA7
:10151000531C036212784A60C28C013A1304C284DD
:10152000E2D1C86820F08000C860C86840F0400080
:10153000C86002B0B0BD00BFD30718BF14F48073F9
:1015400040F0D080530700F1D380D8E05206CBD5CD
:1015500014F04002C8D0CA6822F04002CA602021BC
:1015600080F8411002B0BDE8B04000F059BC00BFA7
:10157000C16B0A68526893B2002BB5D0858DAB421F
:10158000B2D2C2858969202900F0A180016851E8A2
:10159000031F026821F4807142E80313DBB1016884
:1015A00051E8031F026821F4807142E8031393B1EC
:1015B000016851E8031F026821F4807142E80313B7
:1015C0004BB1016851E8031F026821F4807142E8C1
:1015D0000313002BDAD1016851E8051F026821F0DE
:1015E000010142E80513C3B3016851E8051F026811
:1015F00021F0010142E805137BB3016851E8051FA2
:10160000026821F0010142E8051333B3016851E893
:10161000051F026821F0010142E80513002BDAD111
:101620001BE000BF016851E8051F026821F040017E
:1016300042E80513DBB1016851E8051F026821F09B
:10164000400142E8051393B1016851E8051F0268A3
:1016500021F0400142E805134BB1016851E8051F34
:10166000026821F0400142E80513002BDAD1202165
:1016700080F8421000210163016851E8031F0268ED
:1016800021F0100142E80313DBB1016851E8031FA8
:10169000026821F0100142E8031393B1016851E898
:1016A000031F026821F0100142E803134BB10168E7
:1016B00051E8031F026821F0100142E80313002BD8
:1016C000DAD1C16B04460846FEF70CFE2046022123
:1016D0004163818DC28D891A89B202B0BDE8B040E4
:1016E000FFF7BABD436C43F001034364530706D5CB
:1016F000BEF1000F03D0436C43F002034364930731
:1017000006D5BEF1000F03D0436C43F004034364DD
:10171000BCF1000F06D55EEA050303D0436C43F02D
:1017200008034364436C002B3FF4DEAE920605D5FC
:1017300025B1044600F004FD216820464969426C49
:1017400001F0400102F00802891800F0B98000BFE2
:10175000016851E8031F026821F4907142E8031305
:10176000BBB3016851E8031F026821F4907142E89D
:10177000031373B3016851E8031F026821F49071E9
:1017800042E803132BB3016851E8031F026821F4F8
:10179000907142E80313002BDAD11AE0016851E896
:1017A000051F026821F0010142E80513DBB1016861
:1017B00051E8051F026821F0010142E8051393B1C9
:1017C000016851E8051F026821F0010142E8051394
:1017D0004BB1016851E8051F026821F0010142E8A0
:1017E0000513002BDAD1016B012924D1016851E8DE
:1017F000031F026821F0100142E80313DBB1016806
:1018000051E8031F026821F0100142E8031393B16D
:10181000016851E8031F026821F0100142E8031338
:101820004BB1016851E8031F026821F0100142E842
:101830000313002BDAD1202180F84210002101632C
:1018400001684969490640F1C380016851E8051FF4
:10185000026821F0400142E80513DBB1016851E85C
:10186000051F026821F0400142E8051393B10168A9
:1018700051E8051F026821F0400142E805134BB111
:10188000016851E8051F026821F0400142E8051394
:10189000002BDAD1C16B002900F09A8041F6416239
:1018A000C0F60002044608464A63FEF73FFD0028E2
:1018B0003FF41AAEE06B416B02B0BDE8B0400847A0
:1018C0000446FFF7D9FD0020606402B0B0BD00BF40
:1018D000891A00BF026852E8032F036822F490724D
:1018E00043E80325BDB3026852E8032F036822F4DE
:1018F000907243E8032575B3026852E8032F03682A
:1019000022F4907243E803252DB3026852E8032FB6
:10191000036822F4907243E80325002DDAD11AE01F
:10192000026852E8052F036822F0010243E805250A
:10193000DDB1026852E8052F036822F0010243E896
:10194000052595B1026852E8052F036822F00102CF
:1019500043E805254DB1026852E8052F036822F0DF
:10196000010243E80525002DDAD1202280F842202B
:1019700000220263026852E8032F036822F010027B
:1019800043E80325DDB1026852E8032F036822F023
:10199000100243E8032595B1026852E8032F03685B
:1019A00022F0100243E803254DB1026852E8032FEC
:1019B000036822F0100243E80325002DDAD1022249
:1019C00089B2426302B0BDE8B040FFF745BC00BF3A
:1019D00002B0BDE8B040FFF74FBD00BF026A32F869
:1019E000023B6FF35F234B60026295E5002804BF62
:1019F0000120704710B5044690F8410028B9002036
:101A000084F84000204600F021F8242084F84100AA
:101A10002068C16821F40051C160204600F010FC2C
:101A20002068016921F490410161416921F02A0196
:101A30004161C16841F40051C1600020202160640F
:101A400084F8411084F84210606310BD2DE9F04124
:101A500086B040F600050446C4F20105006805F5AD
:101A60004051002788420597CDE90377029703D0BC
:101A700006B0BDE8F08100BF41F21806C4F20206CC
:101A800030680DF1080840F480403060306841460D
:101A900000F4804001900198306840F0040030600C
:101AA000306800F00400019001984FF4007002903B
:101AB00002200390032005902846FEF72FFF4FF4E5
:101AC0008060CDE90207284641460497FEF726FFCD
:101AD00040F22045A6F57C60C2F200058021C5E9F0
:101AE00000072846C5E90271C5E90477C5E906770C
:101AF000FEF748FD002818BFFEF78AFB25200021CD
:101B00000022E5636C62FFF789F82520FFF774F87F
:101B100006B0BDE8F081000090F84230202B0BD1D8
:101B200094460A4600294FF0010118BFBCF1000F8E
:101B300006D10846704700BF02210846704700BF23
:101B400070B582B00025222105638262A0F82CC006
:101B5000456480F842100168C36B41F6C97442F2D3
:101B6000291E41F64D66C0F60004C0F6000EC0F610
:101B70000006C3E90A4EC3E90C6504310446184661
:101B80006346FEF741FD0195216820460A680192EF
:101B9000496801910199216931B300BF016851E899
:101BA000031F026841F4807142E80313E3B1016846
:101BB00051E8031F026841F4807142E803139BB1AE
:101BC000016851E8031F026841F4807142E8031381
:101BD00053B1016851E8031F026841F4807142E883
:101BE0000313002BDAD100BF016851E8051F02681A
:101BF00041F0010142E80513BBB3016851E8051F3C
:101C0000026841F0010142E8051373B3016851E82D
:101C1000051F026841F0010142E805132BB301687A
:101C200051E8051F026841F0010142E80513002B4D
:101C3000DAD11AE0016851E8051F026841F040015D
:101C400042E80513DBB1016851E8051F026841F065
:101C5000400142E8051393B1016851E8051F02688D
:101C600041F0400142E805134BB1016851E8051FFE
:101C7000026841F0400142E80513002BDAD1002050
:101C800002B070BD70470000704700002DE9F043BE
:101C900081B0044690F84100202809D100294FF076
:101CA000010018BF002A07D101B0BDE8F08300BFD2
:101CB000022001B0BDE8F0830020606421201D46B1
:101CC0000E4684F841001746FEF730FFA784E784EC
:101CD000A1688146B1F5805F02D1206900285DD0FE
:101CE00037460020E28C2168002A5DD06A1C24D08F
:101CF000002D4AD0804600BF0868000608D4FEF7D1
:101D000015FFA0EB0900A8427AD82168C868F3E75C
:101D100017B117F8010B04E038F8020B00276FF336
:101D20005F204860E08C0138E084E08C0028E3D13B
:101D30003AE000BF0A68120609D40A68120606D4FF
:101D40000A6812065CBF0A685FEA0262F2D51FB138
:101D500017F8012B05E000BF30F8022B00276FF3C6
:101D60005F224A60E28C013AE284E28C002AE4D1EC
:101D70001AE000BF30F8022B00276FF35F224A60A1
:101D8000E28C013AE284E28C72B10A68120635D51F
:101D9000002FEFD017F8012BF1E700BF00273046E6
:101DA000E28C2168002AA1D1086840061ED42DB318
:101DB000681C14D1086840062AD40868400627D455
:101DC0000868400624D4086840064FF00000F1D5AA
:101DD0000DE000BF2068C1680068400618D4FEF717
:101DE000A5FEA0EB0900A842F4D909E000202021BB
:101DF00084F8411001B0BDE8F08300BFFEF796FE05
:101E00000320202184F8411001B0BDE8F08300BF19
:101E10000020202184F8411001B0BDE8F0830000CB
:101E200070470000FEE70000FEE70000FEE700004C
:101E30007047000070470000FEF77EBE704700004C
:101E4000406A0021C185C184FFF716BB406A016862
:101E50004A6990F84130212B2DD112F080022AD00E
:101E60000021C184016851E8031F026821F0C0010C
:101E700042E80313DBB1016851E8031F026821F057
:101E8000C00142E8031393B1016851E8031F0268DF
:101E900021F0C00142E803134BB1016851E8031F70
:101EA000026821F0C00142E80313002BDAD120219F
:101EB00080F841100168496990F84220222A40F0D8
:101EC0007D8011F0400179D00021C185016851E881
:101ED000031F026821F4907142E80313BBB3016849
:101EE00051E8031F026821F4907142E8031373B3B1
:101EF000016851E8031F026821F4907142E803135E
:101F00002BB3016851E8031F026821F4907142E885
:101F10000313002BDAD11AE0016851E8051F0268AB
:101F200021F0010142E80513DBB1016851E8051F0A
:101F3000026821F0010142E8051393B1016851E8FC
:101F4000051F026821F0010142E805134BB1016849
:101F500051E8051F026821F0010142E80513002B3A
:101F6000DAD1016B012924D1016851E8031F02680D
:101F700021F0100142E80313DBB1016851E8031FAF
:101F8000026821F0100142E8031393B1016851E89F
:101F9000031F026821F0100142E803134BB10168EE
:101FA00051E8031F026821F0100142E80313002BDF
:101FB000DAD1202180F8421000210163416C41F008
:101FC00010014164FFF758BA0168406A0968890640
:101FD00000F19F800021C185016851E8031F02685C
:101FE00021F4807142E80313E3B1016851E8031F53
:101FF000026821F4807142E803139BB1016851E843
:10200000031F026821F4807142E8031353B1016891
:1020100051E8031F026821F4807142E80313002B8A
:10202000DAD100BF016851E8051F026821F0010103
:1020300042E80513BBB3016851E8051F026821F0AF
:10204000010142E8051373B3016851E8051F0268F6
:1020500021F0010142E805132BB3016851E8051F87
:10206000026821F0010142E80513002BDAD11AE0E1
:10207000016851E8051F026821F0400142E805139C
:10208000DBB1016851E8051F026821F0400142E818
:10209000051393B1016851E8051F026821F0400162
:1020A00042E805134BB1016851E8051F026821F0B1
:1020B000400142E80513002BDAD1202180F84210BC
:1020C000016B012925D100BF016851E8031F026897
:1020D00021F0100142E80313DBB1016851E8031F4E
:1020E000026821F0100142E8031393B1016851E83E
:1020F000031F026821F0100142E803134BB101688D
:1021000051E8031F026821F0100142E80313002B7D
:10211000DAD100214163016B012918BFFFF7B2BD7D
:10212000818DFFF799B80000406A01214163016B7E
:10213000012918BFFFF7A8BD818D4908FFF78CB8AA
:1021400081B090F84210222921D183680246B3F56C
:10215000805F09D152F8281F52F8183C002B63D039
:1021600003685B680AE000BF52F8281F13B90369CF
:10217000002BF5D003685B6803F07F030B701168D8
:1021800001311160C18D01390A04C18502D001B04D
:10219000704700BF0168CA6822F02002CA60CA689E
:1021A00022F48072CA604A6922F001024A61202149
:1021B00080F8421000214163026B012A3CD1016387
:1021C000016851E8031F026821F0100142E803137F
:1021D000DBB1016851E8031F026821F0100142E8F9
:1021E000031393B1016851E8031F026821F0100145
:1021F00042E803134BB1016851E8031F026821F064
:10220000100142E80313002BDAD101680A68D206F4
:1022100006D5002200920A68009249680091009950
:10222000818D01B0FFF718B8026852686FF35F2222
:1022300021F8022B8162A5E701B0FFF723BD000062
:1022400010B504460068D4E902C22369016921F48B
:10225000405111430161626943EA0C01E369114392
:10226000C268194349F20C639A431143C160416942
:10227000A26921F44071114343F60002C4F2010245
:102280009042416102D0FEF7A9FD01E0FEF7BAFDE0
:10229000E3694FF69C7C62681921C0F6FF7CB3F5B8
:1022A000004F01FB00F01FD15100B0FBF1F048F2EC
:1022B0001F51C5F2EB11A0FB01235A090CF1805309
:1022C00002FB0300322303EBC000A0FB01014FF42B
:1022D000F87000EA111000EB0210C1F3421108443B
:1022E0002168886010BD00BF9100B0FBF1F048F29A
:1022F0001F51C5F2EB11A0FB01235A0902FB0C0090
:10230000322303EB0010A0FB0101F02000EA511082
:1023100000EB0210C1F3431108442168886010BD2E
:1023200010B582B040F26444C2F200042068016833
:10233000C90622D5002101910168019140680190F0
:1023400001982046FEF78AFFE06B40F21C410068CE
:10235000C2F2000140684FF48062C0F580600880DE
:1023600040F21A40C2F200000121017040F21A014D
:10237000C2F200012046FFF7CFFB40F26440C2F2F8
:10238000000002B0BDE81040FFF778B8FEE700009B
:1023900070B514460E460546FEF7A8FA012C0CDB74
:1023A000043E00BF56F8042F022029460023FEF702
:1023B00011FA013C05F10405F4D1BDE87040FEF7C7
:1023C000FFB900004EF60C50BFF34F8FCEF2000065
:1023D0000168042201F4E061C0F2FA521143016085
:1023E000BFF34F8F00BF00BF00BF00BFFAE7000080
:1023F00080B582B0019040F26440C2F2000001A9B1
:1024000001224FF6FF73FFF741FC019802B080BD37
:1024100090B04EF60850CEF200004FF0006101601F
:10242000FEF798FB06AC201D2421FDF7AEFE02202E
:10243000069001200A9010200B90002520460D9553
:10244000FEF7F4FC20B1EFF3108072B6FEE700BF98
:102450000F20CDE9010501A80021CDE9035505951F
:10246000FEF71AFC20B1EFF3108072B6FEE700BF52
:1024700041F21800C4F202000168002241F020017C
:1024800001600168002501F02001069106990168AC
:1024900041F004010160016801F004010691069910
:1024A00050F8041C41F0010140F8041C50F8040CE1
:1024B000002100F00100069006980F20FEF7AEFB09
:1024C0000F20FEF799FB40F2644443F60000C2F28D
:1024D0000004C4F201004FF4E1310C2284E823002F
:1024E0002046C4E90355C4E90525E561FFF77EFAF6
:1024F00020B1EFF3108072B6FEE700BF40F21A0180
:10250000C2F2000120464FF48062FFF705FB20680D
:10251000C16841F01001C16000F016F8FCE700004E
:1025200080B582B08DF8070040F26440C2F200002E
:102530000DF1070101224FF6FF73FFF7A7FB0A20F9
:10254000FEF7B2F802B080BD70B586B040F210045C
:10255000C2F200042078012813D143208DF808002E
:1025600040F26440C2F2000002A901224FF6FF735C
:10257000FFF78CFB0A20FEF797F84FF47A70FEF70E
:1025800093F840F21A40C2F200000178002900F0EE
:10259000CA8040F21C42C2F20002138840F21805C1
:1025A000DAB240F2D0460021C2F20005C2F20006C3
:1025B00001702B704AB140F2D04040F21A01C2F2D1
:1025C0000000C2F20001FDF7C7FD3078042831D0C9
:1025D000012840F0A88022787078B178012A08BFDD
:1025E00000283BD0052A08BF002800F09F80022A5F
:1025F00040F099806A78904240F095804140FF29F0
:1026000040F09180C10170A000F002F968784FF6A7
:102610008371C0F2FF7101EBC010F11C2022FFF7A3
:10262000B7FE6878013068700620FFF779FF06B0C2
:1026300070BD00BF207804284CD0022870D155A06E
:1026400000F0B0F90420207015208DF8080040F249
:102650006440C2F2000002A957E000BFFF29C1D1C7
:1026600066A000F09FF902202070012040F264442F
:1026700068700620C2F200048DF8080002A9204606
:1026800001224FF6FF73FFF701FB0A20FEF70CF85B
:1026900043208DF8080002A9204601224FF6FF735F
:1026A000FFF7F4FA0A20FDF7FFFFFEF71FF94FF6D8
:1026B0008371C0F2FF7180310020049128210290C3
:1026C0000591019002A801A9FEF702F8FEF778F83B
:1026D00006B070BD2AA000F065F90520207040F218
:1026E00064440620C2F200048DF8080002A92046C6
:1026F00001224FF6FF73FFF7C9FA0A20FDF7D4FF56
:1027000043208DF8080002A9204601224FF6FF73EE
:10271000FFF7BCFA0A20FDF7C7FF06B070BD00BF87
:1027200021A000F03FF906B070BD00BFFF297FF483
:102730005EAF2DA000F036F9FEF7D8F849F6FF712C
:10274000C0F6000102204FF0AA320023FEF742F843
:10275000FEF736F80120207006208DF8080040F2C0
:102760006440C2F2000002A901224FF6FF73FFF796
:102770008DFA0A20FDF798FFFEF78CFA06B070BDBF
:102780003E205265636569766520454F54322E2E92
:102790002E0D00003E205265636569766520454F29
:1027A00054312E2E2E0D00003E2052656365697651
:1027B0006520454F542C20427574206572726F72EB
:1027C0002E2E2E0D000000003E20526563656976B6
:1027D000652064617461206261673A2564206279D2
:1027E00074650D0A000000003E205265636569763D
:1027F0006520656E642E2E2E0D0000003E20526571
:1028000063656976652073746172742E2E2E0D00D7
:102810000FB4054B10B503A9044A029800F018F84C
:1028200010BC5DF814FB0000F1230008000000203C
:1028300002E008C8121F08C1002AFAD17047704789
:10284000002001E001C1121F002AFBD170470000E7
:102850002DE9FF4F89B09B460446002506E0252858
:102860000BD05A460B999047641C6D1C20780028A9
:10287000F5D10DB02846BDE8F08F0027B8460122FB
:10288000474900E0074314F8013F203B02FA03F0F8
:102890000842F7D120782E2819D114F8010F47F0FB
:1028A00004072A280ED06FF02F022078A0F1300103
:1028B00009290CD808EB880102EB410100EB010863
:1028C000641CF2E70A98641C50F8048B0A90207884
:1028D0000028CED0642808D0692806D075281ED0DC
:1028E0005A460B9990476D1C58E00A994FF00A0917
:1028F00001C90A91002802DA40422D2102E039057F
:1029000004D52B218DF82010012103E0F90704D014
:102910002021F7E78A4608AE0DE00021FAE70A9980
:102920004FF00A0901C90A91F7E74946FDF738FC5B
:10293000303106F8011D0028F7D1ADEB060000F19B
:102940002009780701D44FF00108C84502DDA8EB43
:10295000090000E000208046002706E008A85A464B
:10296000C05D0B9990476D1C7F1C5745F6DB04E05A
:1029700030205A460B9990476D1CB8F10001A8F120
:102980000108F5DC05E016F8010B5A460B99904753
:102990006D1CB9F10001A9F10109F4DC641C65E7C3
:1029A0000928010010B5044601E0FFF721FD14F8E5
:1029B000010B04490028F8D1BDE810400A20FFF7B8
:1029C00017BD000000000020000000000000000013
:1029D00001020304060708090000000001020304C5
:1029E00002030405060708090A0B0C0D0E0F101050
:1029F0000102030405060708090A0B0C0D0E0F104F
:102A0000202A0008000000201800000030280008DC
:102A1000382A000818000020C00A000040280008DA
:102A200000000000010000001000000000127A0009
:082A300001000000000000009D
:0400000508000121CD
:00000001FF
